{
  "_format": "hh-sol-artifact-1",
  "contractName": "GiftCard",
  "sourceName": "contracts/GiftCard.sol",
  "abi": [
    {
      "inputs": [],
      "name": "EXPIRATION_TIME",
      "outputs": [
        {
          "internalType": "uint256",
          "name": "",
          "type": "uint256"
        }
      ],
      "stateMutability": "view",
      "type": "function"
    },
    {
      "inputs": [],
      "name": "MIN_PURCHASE",
      "outputs": [
        {
          "internalType": "uint256",
          "name": "",
          "type": "uint256"
        }
      ],
      "stateMutability": "view",
      "type": "function"
    },
    {
      "inputs": [
        {
          "internalType": "bytes32",
          "name": "codeHash",
          "type": "bytes32"
        }
      ],
      "name": "buy",
      "outputs": [],
      "stateMutability": "payable",
      "type": "function"
    },
    {
      "inputs": [],
      "name": "getGiftCards",
      "outputs": [
        {
          "internalType": "bytes32[]",
          "name": "",
          "type": "bytes32[]"
        }
      ],
      "stateMutability": "view",
      "type": "function"
    },
    {
      "inputs": [
        {
          "internalType": "bytes32",
          "name": "codeHash",
          "type": "bytes32"
        }
      ],
      "name": "getPurchaseTime",
      "outputs": [
        {
          "internalType": "uint256",
          "name": "",
          "type": "uint256"
        }
      ],
      "stateMutability": "view",
      "type": "function"
    },
    {
      "inputs": [
        {
          "internalType": "bytes32",
          "name": "codeHash",
          "type": "bytes32"
        }
      ],
      "name": "redeem",
      "outputs": [],
      "stateMutability": "nonpayable",
      "type": "function"
    },
    {
      "inputs": [
        {
          "internalType": "bytes32",
          "name": "",
          "type": "bytes32"
        }
      ],
      "name": "redeemed",
      "outputs": [
        {
          "internalType": "bool",
          "name": "",
          "type": "bool"
        }
      ],
      "stateMutability": "view",
      "type": "function"
    },
    {
      "inputs": [
        {
          "internalType": "bytes32",
          "name": "codeHash",
          "type": "bytes32"
        }
      ],
      "name": "whoOwns",
      "outputs": [
        {
          "internalType": "address",
          "name": "",
          "type": "address"
        }
      ],
      "stateMutability": "view",
      "type": "function"
    }
  ],
  "bytecode": "0x6080604052348015600f57600080fd5b50610dac8061001f6000396000f3fe60806040526004361061007b5760003560e01c8063d347791c1161004e578063d347791c14610141578063d439390c1461017e578063eda1122c146101a9578063ee88dae1146101d25761007b565b80632f49a1eb146100805780633d8b9e07146100bd5780634a5c7348146100fa5780639c9a106114610125575b600080fd5b34801561008c57600080fd5b506100a760048036038101906100a291906107f5565b6101fd565b6040516100b4919061083b565b60405180910390f35b3480156100c957600080fd5b506100e460048036038101906100df91906107f5565b61021a565b6040516100f19190610871565b60405180910390f35b34801561010657600080fd5b5061010f61023a565b60405161011c919061083b565b60405180910390f35b61013f600480360381019061013a91906107f5565b610241565b005b34801561014d57600080fd5b50610168600480360381019061016391906107f5565b610442565b60405161017591906108cd565b60405180910390f35b34801561018a57600080fd5b5061019361047e565b6040516101a0919061083b565b60405180910390f35b3480156101b557600080fd5b506101d060048036038101906101cb91906107f5565b610489565b005b3480156101de57600080fd5b506101e7610725565b6040516101f491906109a6565b60405180910390f35b600060036000838152602001908152602001600020549050919050565b60016020528060005260406000206000915054906101000a900460ff1681565b62278d0081565b66038d7ea4c6800034101561028b576040517f08c379a000000000000000000000000000000000000000000000000000000000815260040161028290610a25565b60405180910390fd5b600073ffffffffffffffffffffffffffffffffffffffff1660008083815260200190815260200160002060009054906101000a900473ffffffffffffffffffffffffffffffffffffffff1673ffffffffffffffffffffffffffffffffffffffff161461032c576040517f08c379a000000000000000000000000000000000000000000000000000000000815260040161032390610a91565b60405180910390fd5b3360008083815260200190815260200160002060006101000a81548173ffffffffffffffffffffffffffffffffffffffff021916908373ffffffffffffffffffffffffffffffffffffffff160217905550600460003373ffffffffffffffffffffffffffffffffffffffff1673ffffffffffffffffffffffffffffffffffffffff16815260200190815260200160002081908060018154018082558091505060019003906000526020600020016000909190919091505534600260008381526020019081526020016000208190555042600360008381526020019081526020016000208190555060006001600083815260200190815260200160002060006101000a81548160ff02191690831515021790555050565b600080600083815260200190815260200160002060009054906101000a900473ffffffffffffffffffffffffffffffffffffffff169050919050565b66038d7ea4c6800081565b3373ffffffffffffffffffffffffffffffffffffffff1660008083815260200190815260200160002060009054906101000a900473ffffffffffffffffffffffffffffffffffffffff1673ffffffffffffffffffffffffffffffffffffffff1614610529576040517f08c379a000000000000000000000000000000000000000000000000000000000815260040161052090610afd565b60405180910390fd5b6001600082815260200190815260200160002060009054906101000a900460ff161561058a576040517f08c379a000000000000000000000000000000000000000000000000000000000815260040161058190610b69565b60405180910390fd5b62278d0060036000838152602001908152602001600020546105ac9190610bb8565b4211156105ee576040517f08c379a00000000000000000000000000000000000000000000000000000000081526004016105e590610c38565b60405180910390fd5b60006002600083815260200190815260200160002054905060008111610649576040517f08c379a000000000000000000000000000000000000000000000000000000000815260040161064090610ca4565b60405180910390fd5b600180600084815260200190815260200160002060006101000a81548160ff02191690831515021790555060003373ffffffffffffffffffffffffffffffffffffffff168260405161069a90610cf5565b60006040518083038185875af1925050503d80600081146106d7576040519150601f19603f3d011682016040523d82523d6000602084013e6106dc565b606091505b5050905080610720576040517f08c379a000000000000000000000000000000000000000000000000000000000815260040161071790610d56565b60405180910390fd5b505050565b6060600460003373ffffffffffffffffffffffffffffffffffffffff1673ffffffffffffffffffffffffffffffffffffffff1681526020019081526020016000208054806020026020016040519081016040528092919081815260200182805480156107b057602002820191906000526020600020905b81548152602001906001019080831161079c575b5050505050905090565b600080fd5b6000819050919050565b6107d2816107bf565b81146107dd57600080fd5b50565b6000813590506107ef816107c9565b92915050565b60006020828403121561080b5761080a6107ba565b5b6000610819848285016107e0565b91505092915050565b6000819050919050565b61083581610822565b82525050565b6000602082019050610850600083018461082c565b92915050565b60008115159050919050565b61086b81610856565b82525050565b60006020820190506108866000830184610862565b92915050565b600073ffffffffffffffffffffffffffffffffffffffff82169050919050565b60006108b78261088c565b9050919050565b6108c7816108ac565b82525050565b60006020820190506108e260008301846108be565b92915050565b600081519050919050565b600082825260208201905092915050565b6000819050602082019050919050565b61091d816107bf565b82525050565b600061092f8383610914565b60208301905092915050565b6000602082019050919050565b6000610953826108e8565b61095d81856108f3565b935061096883610904565b8060005b838110156109995781516109808882610923565b975061098b8361093b565b92505060018101905061096c565b5085935050505092915050565b600060208201905081810360008301526109c08184610948565b905092915050565b600082825260208201905092915050565b7f53656e64206174206c6561737420302e30303120455448000000000000000000600082015250565b6000610a0f6017836109c8565b9150610a1a826109d9565b602082019050919050565b60006020820190508181036000830152610a3e81610a02565b9050919050565b7f436f646520616c72656164792075736564000000000000000000000000000000600082015250565b6000610a7b6011836109c8565b9150610a8682610a45565b602082019050919050565b60006020820190508181036000830152610aaa81610a6e565b9050919050565b7f4e6f7420796f7572206769667420636172640000000000000000000000000000600082015250565b6000610ae76012836109c8565b9150610af282610ab1565b602082019050919050565b60006020820190508181036000830152610b1681610ada565b9050919050565b7f416c72656164792072656465656d656400000000000000000000000000000000600082015250565b6000610b536010836109c8565b9150610b5e82610b1d565b602082019050919050565b60006020820190508181036000830152610b8281610b46565b9050919050565b7f4e487b7100000000000000000000000000000000000000000000000000000000600052601160045260246000fd5b6000610bc382610822565b9150610bce83610822565b9250828201905080821115610be657610be5610b89565b5b92915050565b7f4361726420657870697265640000000000000000000000000000000000000000600082015250565b6000610c22600c836109c8565b9150610c2d82610bec565b602082019050919050565b60006020820190508181036000830152610c5181610c15565b9050919050565b7f496e76616c69642076616c756500000000000000000000000000000000000000600082015250565b6000610c8e600d836109c8565b9150610c9982610c58565b602082019050919050565b60006020820190508181036000830152610cbd81610c81565b9050919050565b600081905092915050565b50565b6000610cdf600083610cc4565b9150610cea82610ccf565b600082019050919050565b6000610d0082610cd2565b9150819050919050565b7f455448207472616e73666572206661696c656400000000000000000000000000600082015250565b6000610d406013836109c8565b9150610d4b82610d0a565b602082019050919050565b60006020820190508181036000830152610d6f81610d33565b905091905056fea2646970667358221220429b3d2fb20eb3fc35c36b876c5c5b02896ce86c2301cb5f9a7cdc63b2cfb90264736f6c634300081c0033",
  "linkReferences": {},
  "deployedLinkReferences": {}
}